{
  "_format": "hh-sol-artifact-1",
  "contractName": "token",
  "sourceName": "contracts/token.sol",
  "abi": [
    {
      "inputs": [],
      "stateMutability": "nonpayable",
      "type": "constructor"
    },
    {
      "inputs": [],
      "name": "name",
      "outputs": [
        {
          "internalType": "string",
          "name": "",
          "type": "string"
        }
      ],
      "stateMutability": "view",
      "type": "function"
    },
    {
      "inputs": [],
      "name": "owner",
      "outputs": [
        {
          "internalType": "address",
          "name": "",
          "type": "address"
        }
      ],
      "stateMutability": "view",
      "type": "function"
    },
    {
      "inputs": [
        {
          "internalType": "address",
          "name": "user",
          "type": "address"
        }
      ],
      "name": "showbalance",
      "outputs": [
        {
          "internalType": "uint256",
          "name": "",
          "type": "uint256"
        }
      ],
      "stateMutability": "view",
      "type": "function"
    },
    {
      "inputs": [],
      "name": "symbol",
      "outputs": [
        {
          "internalType": "string",
          "name": "",
          "type": "string"
        }
      ],
      "stateMutability": "view",
      "type": "function"
    },
    {
      "inputs": [],
      "name": "totalsupply",
      "outputs": [
        {
          "internalType": "uint256",
          "name": "",
          "type": "uint256"
        }
      ],
      "stateMutability": "view",
      "type": "function"
    },
    {
      "inputs": [
        {
          "internalType": "address",
          "name": "to",
          "type": "address"
        },
        {
          "internalType": "uint256",
          "name": "amount",
          "type": "uint256"
        }
      ],
      "name": "transfer",
      "outputs": [],
      "stateMutability": "nonpayable",
      "type": "function"
    }
  ],
  "bytecode": "0x60806040526040518060400160405280600d81526020017f6861726468617420746f6b656e000000000000000000000000000000000000008152506000908051906020019061004f92919061013b565b506040518060400160405280600381526020017f48485400000000000000000000000000000000000000000000000000000000008152506001908051906020019061009b92919061013b565b506103e86002553480156100ae57600080fd5b50600254600460003373ffffffffffffffffffffffffffffffffffffffff1673ffffffffffffffffffffffffffffffffffffffff1681526020019081526020016000208190555033600360006101000a81548173ffffffffffffffffffffffffffffffffffffffff021916908373ffffffffffffffffffffffffffffffffffffffff16021790555061023f565b8280546101479061020d565b90600052602060002090601f01602090048101928261016957600085556101b0565b82601f1061018257805160ff19168380011785556101b0565b828001600101855582156101b0579182015b828111156101af578251825591602001919060010190610194565b5b5090506101bd91906101c1565b5090565b5b808211156101da5760008160009055506001016101c2565b5090565b7f4e487b7100000000000000000000000000000000000000000000000000000000600052602260045260246000fd5b6000600282049050600182168061022557607f821691505b60208210811415610239576102386101de565b5b50919050565b610af6806200024f6000396000f3fe608060405234801561001057600080fd5b50600436106100625760003560e01c806306fdde031461006757806372dd529b146100855780638da5cb5b146100a357806395d89b41146100c1578063a9059cbb146100df578063f4137742146100fb575b600080fd5b61006f61012b565b60405161007c91906106f2565b60405180910390f35b61008d6101b9565b60405161009a919061072d565b60405180910390f35b6100ab6101bf565b6040516100b89190610789565b60405180910390f35b6100c96101e5565b6040516100d691906106f2565b60405180910390f35b6100f960048036038101906100f49190610801565b610273565b005b61011560048036038101906101109190610841565b610485565b604051610122919061072d565b60405180910390f35b600080546101389061089d565b80601f01602080910402602001604051908101604052809291908181526020018280546101649061089d565b80156101b15780601f10610186576101008083540402835291602001916101b1565b820191906000526020600020905b81548152906001019060200180831161019457829003601f168201915b505050505081565b60025481565b600360009054906101000a900473ffffffffffffffffffffffffffffffffffffffff1681565b600180546101f29061089d565b80601f016020809104026020016040519081016040528092919081815260200182805461021e9061089d565b801561026b5780601f106102405761010080835404028352916020019161026b565b820191906000526020600020905b81548152906001019060200180831161024e57829003601f168201915b505050505081565b6102f16040518060400160405280601781526020017f2a2a2a53656e6465722062616c616e6365206973202573000000000000000000815250600460003373ffffffffffffffffffffffffffffffffffffffff1673ffffffffffffffffffffffffffffffffffffffff168152602001908152602001600020546104ce565b6103536040518060600160405280602f8152602001610a92602f9139600460003373ffffffffffffffffffffffffffffffffffffffff1673ffffffffffffffffffffffffffffffffffffffff168152602001908152602001600020543361056a565b80600460003373ffffffffffffffffffffffffffffffffffffffff1673ffffffffffffffffffffffffffffffffffffffff1681526020019081526020016000205410156103d5576040517f08c379a00000000000000000000000000000000000000000000000000000000081526004016103cc9061091b565b60405180910390fd5b80600460003373ffffffffffffffffffffffffffffffffffffffff1673ffffffffffffffffffffffffffffffffffffffff1681526020019081526020016000206000828254610424919061096a565b9250508190555080600460008473ffffffffffffffffffffffffffffffffffffffff1673ffffffffffffffffffffffffffffffffffffffff168152602001908152602001600020600082825461047a919061099e565b925050819055505050565b6000600460008373ffffffffffffffffffffffffffffffffffffffff1673ffffffffffffffffffffffffffffffffffffffff168152602001908152602001600020549050919050565b61056682826040516024016104e49291906109f4565b6040516020818303038152906040527fb60e72cc000000000000000000000000000000000000000000000000000000007bffffffffffffffffffffffffffffffffffffffffffffffffffffffff19166020820180517bffffffffffffffffffffffffffffffffffffffffffffffffffffffff8381831617835250505050610609565b5050565b61060483838360405160240161058293929190610a24565b6040516020818303038152906040527f1c7ec448000000000000000000000000000000000000000000000000000000007bffffffffffffffffffffffffffffffffffffffffffffffffffffffff19166020820180517bffffffffffffffffffffffffffffffffffffffffffffffffffffffff8381831617835250505050610609565b505050565b61062081610618610623610644565b63ffffffff16565b50565b60006a636f6e736f6c652e6c6f679050600080835160208501845afa505050565b61064f819050919050565b610657610a62565b565b600081519050919050565b600082825260208201905092915050565b60005b83811015610693578082015181840152602081019050610678565b838111156106a2576000848401525b50505050565b6000601f19601f8301169050919050565b60006106c482610659565b6106ce8185610664565b93506106de818560208601610675565b6106e7816106a8565b840191505092915050565b6000602082019050818103600083015261070c81846106b9565b905092915050565b6000819050919050565b61072781610714565b82525050565b6000602082019050610742600083018461071e565b92915050565b600073ffffffffffffffffffffffffffffffffffffffff82169050919050565b600061077382610748565b9050919050565b61078381610768565b82525050565b600060208201905061079e600083018461077a565b92915050565b600080fd5b6107b281610768565b81146107bd57600080fd5b50565b6000813590506107cf816107a9565b92915050565b6107de81610714565b81146107e957600080fd5b50565b6000813590506107fb816107d5565b92915050565b60008060408385031215610818576108176107a4565b5b6000610826858286016107c0565b9250506020610837858286016107ec565b9150509250929050565b600060208284031215610857576108566107a4565b5b6000610865848285016107c0565b91505092915050565b7f4e487b7100000000000000000000000000000000000000000000000000000000600052602260045260246000fd5b600060028204905060018216806108b557607f821691505b602082108114156108c9576108c861086e565b5b50919050565b7f4e6f742053756666696369656e7420746f6b656e000000000000000000000000600082015250565b6000610905601483610664565b9150610910826108cf565b602082019050919050565b60006020820190508181036000830152610934816108f8565b9050919050565b7f4e487b7100000000000000000000000000000000000000000000000000000000600052601160045260246000fd5b600061097582610714565b915061098083610714565b9250828210156109935761099261093b565b5b828203905092915050565b60006109a982610714565b91506109b483610714565b9250827fffffffffffffffffffffffffffffffffffffffffffffffffffffffffffffffff038211156109e9576109e861093b565b5b828201905092915050565b60006040820190508181036000830152610a0e81856106b9565b9050610a1d602083018461071e565b9392505050565b60006060820190508181036000830152610a3e81866106b9565b9050610a4d602083018561071e565b610a5a604083018461077a565b949350505050565b7f4e487b7100000000000000000000000000000000000000000000000000000000600052605160045260246000fdfe2a2a2a53656e6465722069732073656e64696e672025732062616c616e63652066726f6d2025732061646472657373a2646970667358221220505156d570dd40e9705ef574b12746ef3e288c97701c658dec242c3b5a7d261764736f6c63430008090033",
  "linkReferences": {},
  "deployedLinkReferences": {}
}